:100000000C9424060C9441060C9441060C94410671
:100010000C9441060C9441060C9441060C94410644
:100020000C9441060C9441060C9441060C94410634
:100030000C9441060C9441060C9441060C94410624
:100040000C9441060C9441060C9441060C94410614
:100050000C9441060C9441060C9441060C94410604
:100060000C9441060C9441060000000000000000C2
:100070000000000000000000000000000000000080
:10008000000000000000000000000C000C000C004C
:100090000C000C000C000C000C0000000C00000018
:1000A0000000000000000000000000001DC01DC096
:1000B00008800880088000000000000000000000A8
:1000C000000000000000000000000D800D800D8089
:1000D0000D803FC01B003FC01B001B001B001B000E
:1000E000000000000000000004001F80318031800B
:1000F00038001E000F000380318031803F00040073
:10010000040000000000000000001800240024008B
:1001100018C007801E0031800240024001800000AC
:100120000000000000000000000000000F001800A8
:10013000180018000C001D80370033001D800000DF
:1001400000000000000000000000000007000700A1
:100150000200020002000000000000000000000099
:100160000000000000000000000003000300060083
:100170000E000C000C000C000C000E00060003002A
:1001800003000000000000000000180018000C0030
:100190000600060006000600060006000C001C0013
:1001A00018000000000000000000060006003FC02C
:1001B0003FC00F001F8019800000000000000000F9
:1001C000000000000000000000000000000004002B
:1001D000040004003F80040004000400000000004C
:1001E000000000000000000000000000000000000F
:1001F00000000000000000000000060004000C00E9
:1002000008000800000000000000000000000000DE
:10021000000000003F80000000000000000000001F
:1002200000000000000000000000000000000000CE
:10023000000000000000000000000C000C000000A6
:10024000000000000000000000C000C0018001802C
:100250000300030006000C000C001800180030001A
:10026000300000000000000000000E001B00318084
:10027000318031803180318031801B000E000000E0
:100280000000000000000000000006003E00060024
:100290000600060006000600060006003FC000003B
:1002A000000000000000000000000F0019803180F5
:1002B0003180030006000C00180030003F80000071
:1002C000000000000000000000003F00618001808D
:1002D00003001F0003800180018061803F00000057
:1002E00000000000000000000000070007000F00F1
:1002F0000B001B00130033003F8003000F80000041
:10030000000000000000000000001F80180018001E
:1003100018001F0011800180018021801F00000053
:100320000000000000000000000007801C00180012
:100330003000370039803180318019800F00000093
:10034000000000000000000000007F0043000300E8
:1003500006000600060006000C000C000C00000061
:10036000000000000000000000001F00318031800C
:1003700031801F0031803180318031801F000000CA
:10038000000000000000000000001E00330031806B
:10039000318033801D800180030007003C00000095
:1003A000000000000000000000000000000000004D
:1003B0000C000C000000000000000C000C0000000D
:1003C000000000000000000000000000000000002D
:1003D0000300030000000000000006000400080005
:1003E00008000000000000000000000000C0030042
:1003F00004001800600018000400030000C00000A2
:1004000000000000000000000000000000000000EC
:1004100000007FC000007FC000000000000000005E
:100420000000000000000000000000006000180054
:100430000400030000C00300040018006000000076
:100440000000000000000000000000001F003180DC
:100450003180018007000C000C0000000C0000003F
:10046000000000000000000000000E00110021004C
:1004700021002700290029002700200011000E007C
:100480000000000000000000000000003F000F001E
:100490000900198019801F8030C030C079E0000049
:1004A0000000000000000000000000007F0031801C
:1004B000318031803F003180318031807F00000009
:1004C0000000000000000000000000001F4030C0DD
:1004D0006040600060006000604030801F000000ED
:1004E0000000000000000000000000007F003180DC
:1004F00030C030C030C030C030C031807F0000001C
:100500000000000000000000000000007F8030803C
:10051000308032003E003200308030807F8000002A
:100520000000000000000000000000007FC030401C
:10053000304032003E003200300030007C000000CD
:100540000000000000000000000000001E8031805C
:1005500060806000600067C0618031801F00000023
:100560000000000000000000000000007BC031809F
:10057000318031803F803180318031807BC000000C
:100580000000000000000000000000003FC0060066
:100590000600060006000600060006003FC0000038
:1005A0000000000000000000000000001FC0030069
:1005B0000300030003006300630063003E000000CB
:1005C0000000000000000000000000007BC031803F
:1005D000330036003C003E003300318079C000001B
:1005E0000000000000000000000000007E00180075
:1005F0001800180018001840184018407FC000006C
:10060000000000000000000000000000E0E060C00A
:1006100071C07BC06AC06EC064C060C0FBE00000F7
:1006200000000000000000000000000073C03180E6
:1006300039803D803580378033803180798000007B
:100640000000000000000000000000001F003180DA
:1006500060C060C060C060C060C031801F0000002A
:100660000000000000000000000000007F0031805A
:100670003180318031803F00300030007E0000004A
:100680000000000000000000000000001F0031809A
:1006900060C060C060C060C060C031801F000CC01E
:1006A0001F80000000000000000000007F0031807B
:1006B000318031803E003300318031807CE00000A9
:1006C0000000000000000000000000001F803180DA
:1006D000318038001F000380318031803F000000EE
:1006E0000000000000000000000000007F804C803F
:1006F0004C804C800C000C000C000C003F000000F3
:100700000000000000000000000000007BC03180FD
:100710003180318031803180318031801F00000094
:100720000000000000000000000000007BC03180DD
:1007300031801B001B001B000A000E000E00000091
:10074000000000000000000000000000FBE060C0AE
:1007500064C06EC06EC02A803B803B803180000048
:100760000000000000000000000000007BC031809D
:100770001B000E000E000E001B0031807BC000002D
:1007800000000000000000000000000079E030C020
:1007900019800F0006000600060006001F800000FA
:1007A0000000000000000000000000003F802180E9
:1007B0002300060004000C00188030803F800000F9
:1007C0000000000000000000000007800600060096
:1007D00006000600060006000600060006000600E9
:1007E00007800000000000003000300018001800F2
:1007F0000C000C000600030003000180018000C013
:1008000000C000000000000000001E0006000600FE
:1008100006000600060006000600060006000600A8
:100820001E0000000000000004000A000A00110081
:100830002080208000000000000000000000000078
:1008400000000000000000000000000000000000A8
:100850000000000000000000000000000000000098
:10086000000000000000FFE008000400020000009B
:100870000000000000000000000000000000000078
:100880000000000000000000000000000000000068
:100890001F00018001801F80318033801DC0000057
:1008A0000000000000000000000070003000300078
:1008B0003700398030C030C030C039807700000048
:1008C0000000000000000000000000000000000028
:1008D0001E80318060806000608031801F000000D9
:1008E0000000000000000000000003800180018083
:1008F0001D80338061806180618033801DC0000075
:1009000000000000000000000000000000000000E7
:100910001F00318060C07FC0600030C01F800000B9
:100920000000000000000000000007E00C000C00C8
:100930003F800C000C000C000C000C003F800000FD
:1009400000000000000000000000000000000000A7
:100950001DC0338061806180618033801D80018093
:1009600001801F0000000000000070003000300017
:100970003700398031803180318031807BC0000088
:10098000000000000000000000000600060000005B
:100990001E00060006000600060006003FC000001C
:1009A000000000000000000000000600060000003B
:1009B0003F000300030003000300030003000300E3
:1009C00003003E0000000000000070003000300016
:1009D000378036003C003C003600330077C0000012
:1009E000000000000000000000001E0006000600DD
:1009F0000600060006000600060006003FC00000D4
:100A000000000000000000000000000000000000E6
:100A10007F8036C036C036C036C036C076E00000B3
:100A200000000000000000000000000000000000C6
:100A30007700398031803180318031807BC0000087
:100A400000000000000000000000000000000000A6
:100A50001F00318060C060C060C031801F00000096
:100A60000000000000000000000000000000000086
:100A70007700398030C030C030C039803700300056
:100A800030007C00000000000000000000000000BA
:100A90001DC0338061806180618033801D80018052
:100AA000018007C0000000000000000000000000FE
:100AB0007B801CC018001800180018007F00000080
:100AC0000000000000000000000000000000000026
:100AD0001F8031803C001F00038031803F000000F8
:100AE00000000000000000000000180018001800BE
:100AF0007F00180018001800180018800F00000070
:100B000000000000000000000000000000000000E5
:100B10007380318031803180318033801DC000008E
:100B200000000000000000000000000000000000C5
:100B30007BC0318031801B001B000E000E000000C6
:100B400000000000000000000000000000000000A5
:100B5000F1E060C064C06EC03B803B80318000002B
:100B60000000000000000000000000000000000085
:100B70007BC01B000E000E000E001B007BC000009F
:100B80000000000000000000000000000000000065
:100B900079E030C0198019800B000F0006000600B4
:100BA0000C003E00000000000000000000000000FB
:100BB0003F80218003000E00180030803F8000003D
:100BC0000000000000000000000006000C000C0007
:100BD0000C000C000C0018000C000C000C000C00A9
:100BE00006000000000000000000060006000600ED
:100BF00006000600060006000600060006000600C5
:100C0000060000000000000000000C0006000600C6
:100C100006000600060003000600060006000600A7
:100C20000C000000000000000000000000000000B8
:100C300000001800248003000000000000000000F5
:100C4000000000000000000011241FBECFEFD8E01C
:100C5000DEBFCDBF12E0A0E0B1E0EEE6FAE102C0F7
:100C600005900D92A038B107D9F722E0A0E8B2E0D4
:100C700001C01D92A038B207E1F70E94A00C0C94AD
:100C8000350D0C940000CF93C82F60E081E00E94E6
:100C900045088C2F0E946D08CF910895CF93C82FDF
:100CA00061E081E00E9445088C2F0E946D08CF9181
:100CB000089587E00E9462088111FBCF87E893E1E5
:100CC0000197F1F700C00000089561E080E00E9404
:100CD000450887E893E10197F1F700C0000060E064
:100CE00080E00E94450883EF91E00197F1F700C092
:100CF000000061E080E00E94450887E893E10197E9
:100D0000F1F700C000000895CF93DF930E947C08A4
:100D1000EC01892B09F0ACC00E94650682E10E94BB
:100D200043062FE58AEE90E0215080409040E1F7A5
:100D300000C0000086E40E94430687EF0E944E0632
:100D40000E94590687E40E94430687EF0E944E06E0
:100D50000E94590681E00E9443068FED0E944E06D4
:100D600081E00E944E0680E00E944E0683E00E94D1
:100D7000430680E00E944E0684E00E94430681E420
:100D80000E944E0688EA0E944E0682E30E944E06AA
:100D900081E10E94430683E00E944E068CE30E949C
:100DA000430680E00E944E068CE00E9443068EEAD5
:100DB0000E944E0687EC0E944E0683EC0E944E066F
:100DC00080EC0E944E0680EC0E944E0688E10E9454
:100DD000430680E80E944E068CE20E94430684E4AB
:100DE0000E944E0687E30E94430680E00E944E0662
:100DF0008FEF0E944E068FEF0E944E068FEF0E94EB
:100E00004E068FEF0E944E068FE40E944E068FEF33
:100E10000E944E068FEF0E944E068FEF0E944E06F4
:100E20008FEF0E944E0684E40E94430680E00E94F9
:100E30004E0680E00E944E0687E10E944E0681E049
:100E40000E944E0685E40E94430680E00E944E0602
:100E500080E00E944E068FED0E944E0681E00E94C7
:100E60004E0682E20E9443068FEC0E944E0602C0AC
:100E7000CFEFDFEFCE01DF91CF91089580E20E94A6
:100E800043060E945906089580E10E94430683E0CC
:100E90000E944E0608951F93CF93DF93182F82E38D
:100EA0000E944306C0E0D0E012C0113039F4FE01C8
:100EB000E159FE4F80810E944E0608C0111106C004
:100EC000FE01EA5FFE4F80810E944E062196C936E0
:100ED000D10558F3DF91CF911F9108956F927F92C2
:100EE0008F929F92AF92BF92CF92DF92EF920F9329
:100EF0001F93CF93DF936C014B015A01C901861BED
:100F0000970BAC0147705527452B39F4969587957B
:100F1000969587959695879507C09695879596950A
:100F20008795969587950196A8014A195B09849F34
:100F3000E001859FD00D949FD00D1124390181E0EF
:100F4000681A71080150110984E40E944306882D33
:100F50000E944E06892D83700E944E06862D0E94A7
:100F60004E06872D83700E944E0685E40E9443063C
:100F70008A2D0E944E068B2D83700E944E06802F74
:100F80000E944E06812F83700E944E068EE40E94BE
:100F90004306882D0E944E068FE40E9443068A2D48
:100FA0000E944E068B2D0E944E0684E20E9443064C
:100FB00000E010E008C0F601E00FF11F80810E9400
:100FC0004E060F5F1F4F0C171D07A8F3EE2021F0F0
:100FD00081E00E944B0703C080E00E944B07DF9135
:100FE000CF911F910F91EF90DF90CF90BF90AF9076
:100FF0009F908F907F906F9008951F93CF93DF9372
:10100000182F8EE40E94430680E00E944E0680E086
:101010000E944E068FE40E94430680E00E944E0626
:1010200080E00E944E0684E20E944306C0E0D0E0C9
:1010300004C08FEF0E944E062196C03A81E4D80783
:10104000C0F3112321F081E00E944B0703C080E030
:101050000E944B0780E20E9443060E945906DF91DE
:10106000CF911F91089584B1876084B98AB18F7739
:101070008AB984B18C6284B981E58CBD08958EBD36
:101080000DB407FEFDCF8EB50895662369F045B116
:1010900021E030E0B90102C0660F771F8A95E2F7C0
:1010A000CB01842B85B9089545B121E030E0B90129
:1010B00002C0660F771F8A95E2F7CB0180958423E3
:1010C00085B9089529B130E002C0359527958A95F4
:1010D000E2F781E020FF80E00895CF93C82F60E021
:1010E00082E00E9445088C2F0E943F0861E082E068
:1010F0000E944508CF9108950E94330880E090E057
:101100000895FC011182108273836283CA01877083
:101110009927892B81F0CA0108964770507855238A
:1011200034F441505109486F5F6F4F5F5F4FBC010E
:10113000641B750BAB015583448337832683089565
:10114000CF93DF9377230CF472C0DC011496ED91FA
:10115000FC9115976E177F070CF069C055230CF4AE
:1011600066C016960D90BC91A02D4A175B070CF037
:101170005EC0232B69F1EC012A813B81E49FC00111
:10118000E59F900DF49F900D1124860F971F9923D2
:101190000CF40796959587959595879595958795E0
:1011A000F901E80FF91F67707078772334F4615004
:1011B0007109686F7F6F6F5F7F4F80E890E002C0BA
:1011C000959587956A95E2F79081892B80832FC04A
:1011D000DC0112962D913C911397E49FC001E59F8D
:1011E000900DF49F900D1124860F971F99230CF4F6
:1011F0000796959587959595879595958795F90186
:10120000E80FF91F67707078772334F46150710923
:10121000686F7F6F6F5F7F4F80E890E002C09595A9
:1012200087956A95E2F78095908189238083DF9185
:10123000CF910895CF92DF92EF92FF920F931F9379
:10124000CF93DF938C016B01E12CF12C13C096013D
:10125000AE01B701C8010E94A008219602C0C0E0FB
:10126000D0E0F80186819781C817D90784F3FFEF92
:10127000EF1AFF0AF80184819581E816F9067CF3DC
:10128000DF91CF911F910F91FF90EF90DF90CF9062
:101290000895FC01828193810895FC01718360832C
:1012A0000895CF93DF93FA01DC014D915C91119782
:1012B00041155105D1F477230CF46AC014964D9171
:1012C0005C911597641775070CF062C0FF230CF44E
:1012D0005FC016964D915C911797E417F5070CF0D7
:1012E00057C0AF010E94A00853C041305105D1F44E
:1012F00077230CF44DC0EC014E815F8164177507B4
:101300000CF046C0FF230CF443C04C815D81E41710
:10131000F507F4F5DA01AE1BBF0BAB01BD010E946E
:10132000A00836C042305105C1F477238CF1EC019E
:10133000AC81BD816A177B075CF5FF234CF14E81C0
:101340005F81E417F50724F5ED01C61BD70BBE013D
:101350004E1B5F0B0E94A0081BC043305105C1F417
:101360007723B4F0DC0116964D915C9117976417C2
:10137000750774F4FF2364F014960D90BC91A02DB2
:10138000EA17FB072CF4461B570BBF010E94A0086D
:10139000DF91CF9108952F923F924F925F926F927B
:1013A0007F928F929F92AF92BF92CF92DF92EF92F5
:1013B000FF920F931F93CF93DF932C016B015A0180
:1013C0001701822F90E08097F80144815581849F16
:1013D0009001859F300D949F300D1124828193815F
:1013E000AC01569547955695479556954795877004
:1013F0009927009711F081E090E0840F951F289FB6
:10140000A001299F500D389F500D1124F8018080B4
:101410009180840E951E612C712C41C0F401449181
:101420009E0127703078332334F421503109286F1E
:101430003F6F2F5F3F4F790180E890E0BC0102C011
:10144000759567952A95E2F7842F90E08623972378
:10145000892B51F09101A3014A0D5B1DBE016C0D5A
:101460007D1DC2010E94510977E0E716F10419F4CD
:101470008FEF881A980A219602C0C0E0D0E0F801E8
:1014800082819381C817D90748F287709927892BE1
:1014900019F0FFEF8F1A9F0A6FEF661A760AF801AC
:1014A000848195816816790640F3DF91CF911F9171
:1014B0000F91FF90EF90DF90CF90BF90AF909F90F3
:1014C0008F907F906F905F904F903F902F900895F6
:1014D0004F925F926F927F928F929F92AF92BF9244
:1014E000CF92DF92EF92FF920F931F93CF93DF93F0
:1014F0004C01EB015A0139016801270110C072014A
:101500008601A501BE01C4010E94CB09F6018281BA
:101510009381C80FD91F2297FFEF6F1A7F0AF3013B
:1015200020812111ECCFDF91CF911F910F91FF907E
:10153000EF90DF90CF90BF90AF909F908F907F9073
:101540006F905F904F9008958F929F92AF92BF924D
:10155000CF92DF92EF92FF920F931F93CF93DF937F
:101560004C017B015A016901EB0107C09801A501FB
:10157000BE01C4010E9451092196C7018C0D9D1D19
:10158000C817D9079CF3DF91CF911F910F91FF905E
:10159000EF90DF90CF90BF90AF909F908F90089585
:1015A0008F929F92AF92BF92CF92DF92EF92FF9273
:1015B0000F931F93CF93DF934C015B017A01690175
:1015C000EA0107C09801AE01B501C4010E945109AA
:1015D0002196C7018C0D9D1DC817D9079CF3DF917B
:1015E000CF911F910F91FF90EF90DF90CF90BF9020
:1015F000AF909F908F9008950E94840681E00E9492
:10160000FD072FE38DE093E0215080409040E1F70B
:1016100000C0000008952F923F924F925F926F9208
:101620007F928F929F92AF92BF92CF92DF92EF9272
:10163000FF920F931F93CF93DF93CDB7DEB76697DB
:101640000FB6F894DEBF0FBECDBF9A8B898B7C8B13
:101650006B8B5E874D87388B2F8758012DB73EB730
:101660003E8B2D8BCA0155230CF4079695958795D3
:1016700095958795959587954F855889849F900175
:10168000859F300D949F300D11248DB79EB7821B1E
:10169000930B0FB6F8949EBF0FBE8DBF6DB77EB78C
:1016A0006F5F7F4F9A014D855E85CE0101960E9446
:1016B000810863E070E0CE0101960E944D0961E06F
:1016C00070E0CE0101960E941A09EE2071F100E04F
:1016D00010E02F85388940E050E060E070E0CE01F6
:1016E00001960E94A40A2F8538894D855E85415058
:1016F000510960E070E0CE0101960E94A40A2D8598
:101700003E8540E050E061E070E0CE0101960E942D
:10171000D00A2D853E8540E050E06F857889615084
:101720007109CE0101960E94D00A8F85988969E0DF
:1017300070E00E94FE0C1B01F50101900020E9F70A
:1017400031973F016A187B08412C512C812C912C38
:1017500066C0C101840D951D8615970528F014C03B
:1017600091E0C91AD10801C06101F601E40DF51D2F
:10177000EA0DFB1D8081803219F01C141D0484F3D6
:10178000C114D10429F005C06301C418D50801C0F3
:1017900061012DB73EB73C872B87C10101964DB73C
:1017A0005EB7481B590B0FB6F8945EBF0FBE4DBF16
:1017B0008DB79EB701969A878987B501640D751D0F
:1017C000A6010E94260DE985FA85EC0DFD1D10820B
:1017D0008FE0889DA001899D500D1124E12CF12CF2
:1017E00000E011E029853A8560E070E0CE010196C5
:1017F0000E94680A4C0C5D1CF501E40DF51D80810A
:10180000803219F49FEF491A590A2FEF821A920A6F
:101810004B855C850FB6F8945EBF0FBE4DBF461476
:10182000570408F496CFCF84D8888B899C89C80E3A
:10183000D91EAD84BE8429893A89A20EB31ECE0179
:1018400001960E944909E12C860195014B895C892A
:1018500069897A890E946E070E943E07CE0101962F
:101860000E94490995014B895C8969897A890E949E
:101870006E074D895E890FB6F8945EBF0FBE4DBFEF
:1018800066960FB6F894DEBF0FBECDBFDF91CF9145
:101890001F910F91FF90EF90DF90CF90BF90AF908E
:1018A0009F908F907F906F905F904F903F902F9080
:1018B0000895CF92DF92EF920F931F93CF93DF9310
:1018C000EC016B01EE24E3948A0120EA30E040E56C
:1018D00050E060E070E088EC90E00E940B0B860125
:1018E00020EA30E040E550E060EA70E088EC90E00B
:1018F0000E940B0B8E0120EA30E040E550E060E4EE
:1019000071E088EC90E00E940B0BDF91CF911F916A
:101910000F91EF90DF90CF900895EF920F931F9368
:10192000E12C8C0120E031E040E250E068ED70E015
:1019300080E990E00E940B0B1F910F91EF900895AA
:10194000CF93DF93CDB7DEB7CA5DD1090FB6F89458
:10195000DEBF0FBECDBFCE0101960E94FC0A8EE114
:10196000E8EDF1E0DE01D39601900D928A95E1F762
:1019700085E2E6EFF1E0DE01AF5ABF4F01900D9234
:101980008A95E1F782E3EBE1F2E0DE01AA58BF4F6E
:1019900001900D928A95E1F783E3EDE4F2E0DE0138
:1019A000A855BF4F01900D928A95E1F7AE014A58B4
:1019B0005F4FBE016F5A7F4FCE01C3960E94590CF4
:1019C000CE0188559F4F0E948D0CAE014F5A5F4F3C
:1019D000BE016D5C7F4FCE018A589F4F0E94590C0B
:1019E0000E9444072FE338EF84EE9FE021503040FF
:1019F00080409040D9F700C00000FFCF97FB072E32
:101A000016F4009407D077FD09D00E94120D07FC50
:101A100005D03EF4909581959F4F089570956195FE
:101A20007F4F0895AA1BBB1B51E107C0AA1FBB1F14
:101A3000A617B70710F0A61BB70B881F991F5A955A
:101A4000A9F780959095BC01CD010895FB01DC01BB
:101A50004150504048F001900D920020C9F701C05C
:0E1A60001D9241505040E0F70895F894FFCFDA
:101A6E0068000B00100000000000000000000000E5
:101A7E000A00000000000000000005000000000049
:101A8E000000000000000000000000000000000048
:101A9E000000000000000000000003050000000030
:101AAE000000000000000000000000000000000028
:101ABE000000000000000000000000000000000018
:101ACE000000000000000000000022222222222A34
:101ADE00050000000000000000052A0000000000C4
:101AEE000000002A150000000000000000050A009A
:101AFE0000000000000000000000000000000000D8
:101B0E00000002030A0002060A05000000000000A1
:101B1E0000000000000000000000000000000000B7
:101B2E0000000000000000000000000000000000A7
:101B3E000000002222222222536F207768657265F0
:101B4E002061726520796F7520747279696E6720D5
:101B5E00746F20676F00486F77206C6F6E67206818
:101B6E0061766520796F75206265656E20696E20DD
:101B7E0061757374696E20666F72004E61682069BC
:101B8E0020616D206E6F742068656C70696E6720C1
:101B9E00796F752E205468697320646F65736E2794
:101BAE0074206D616B652073656E736500413A201C
:101BBE0075706461746520616E7377657220626FF3
:101BCE00782E2049206E6565642074686973206CD8
:101BDE00696E6520746F206F766572666C6F770024
:00000001FF
